:1000000000000420BD020000E5020000E70200003D
:10001000E9020000EB020000ED0200000000000019
:10002000000000000000000000000000EF020000DF
:10003000F102000000000000F3020000F5020000E1
:10004000F7020000F70200002D080000F702000090
:10005000F7020000F7020000F7020000F7020000BC
:10006000F7020000F7020000F7020000F7020000AC
:10007000F7020000F7020000F7020000F70200009C
:10008000F7020000F7020000F7020000F70200008C
:10009000F7020000F7020000F7020000F70200007C
:1000A000F7020000F7020000F7020000F70200006C
:1000B000F7020000F702000000000000000000004E
:1000C000F7020000F7020000F7020000F70200004C
:1000D000F7020000F7020000F7020000F70200003C
:1000E000F7020000F7020000F70200000000000025
:1000F00000000000F702000000000000F70200000E
:1001000000000000000000000000000000000000EF
:1001100000000000000000000000000000000000DF
:1001200000000000000000000000000000000000CF
:1001300000000000000000000000000000000000BF
:1001400000000000000000000000000000000000AF
:10015000000000000000000000000000000000009F
:10016000000000000000000000000000000000008F
:10017000000000000000000000000000000000007F
:10018000000000000000000000000000000000006F
:10019000000000000000000000000000000000005F
:1001A000000000000000000000000000000000004F
:1001B000000000000000000000000000000000003F
:1001C000000000000000000000000000000000002F
:1001D000000000000000000000000000000000001F
:1001E000000000000000000000000000000000000F
:1001F00000000000000000000000000000000000FF
:1002000010B5054C237833B9044B13B10448AFF350
:1002100000800123237010BD880000200000000032
:100220001C28000008B5034B1BB103490348AFF37A
:10023000008008BD000000008C0000201C28000089
:10024000A3F5803A704700BF174B002B08BF134B34
:100250009D46FFF7F5FF00218B460F461348144AD1
:10026000121A01F073FA0E4B002B00D098470D4B79
:10027000002B00D098470020002104000D000D48FD
:10028000002802D00C48AFF3008001F03BFA2000B8
:10029000290001F0CBF801F021FA00BF00000800AE
:1002A0000000000000000000000004208800002082
:1002B0006003002000000000000000000649074A1B
:1002C000074B9B1A03DD043BC858D050FBDC01F000
:1002D000F3F8FFF7B9FF0000282800000000002015
:1002E00088000020FEE7FEE7FEE7FEE7FEE7FEE708
:1002F000FEE7FEE7FEE7FEE7C20710B40FD4830770
:100300000AD54FF0A0430C22C3F82C27C3F830279E
:10031000C3F86027C3F864275DF8044B70474FF0BB
:10032000A04303224FF40051C3F834274FF4804414
:10033000C3F83827C3F83C27C3F84027C3F808158B
:100340004FF480324FF40041C3F80845C3F8081554
:10035000C3F80825D3E700BF00B585B003460021E8
:1003600001AA44F20100CDE90111039300F004F861
:1003700005B05DF804FB00BF72B6094BD3F8F0304E
:10038000DB0700D500BEBFF34F8F0549054BCA6898
:1003900002F4E0621343CB60BFF34F8F00BFFDE771
:1003A00000ED00E00400FA0559B142B1531E1A40B5
:1003B00005D1826001608380C260104670470920C9
:1003C00070470E20704700BF10B48468C2680346AF
:1003D0008088121B904203D204205DF8044B7047C2
:1003E000DC681A6820401154DA680132DA600020B3
:1003F0005DF8044B704700BF03468068DA6890429E
:100400000DD010B49C689A8818682240825C0A70EB
:100410009A6801329A6000205DF8044B704705200D
:10042000704700BF30B50478012C83B004D0022C93
:100430002DD0ECB103B030BD037A002B3CD0436823
:10044000364D19782846FFF7BFFF002855D0344BAA
:1004500001901B688DF8004068469847A968EB68D2
:10046000AA885B1A9A4227D22E4B01221A70E1E722
:100470002D492E48FFF7C0FF00282DD0284B03221E
:100480001B688DF800206846984703B030BD284BA4
:10049000284D1A78C168AA5C01918DF80040264960
:1004A000AAB9012203F10C0000F03CFC1C4B684689
:1004B0001B68984703B030BD1D4B1E4A1B781E4970
:1004C000D35C0122ABB11D4800F00AFFB2E7012264
:1004D000181D00F005FFE9E71548164A0378124990
:1004E000D35C0122A3B1043003B0BDE8304000F07A
:1004F00091BE134800F016FC9CE7AA68EB689A428C
:10050000ACD0074B8DF800001B6868469847A5E7FC
:100510000C3003B0BDE8304000F08CBBA8000020D8
:10052000A4000020B8000020D0000020BC00002063
:1005300000000020E8000020CC0000200400002083
:100540000C0000202DE9F0412F4E88B032600029C8
:1005500051D08A8804460E462C4809681D46FFF78C
:1005600023FF10B108B0BDE8F081B289B168284816
:10057000FFF71AFF0028F5D194F810E0637C254EB0
:10058000254FBEF1000E18BF4FF0010E002B0FCE0D
:10059000EC46ACE80F006368009323680193E368BE
:1005A0000293A368039396E80F0018BF4FF00E085C
:1005B0008CE80F0008BF4FF000086369174A0693E4
:1005C000694638468DF814E08DF81C508DF815807A
:1005D00000F0F0F80028C5D12368114A01331070EB
:1005E000C0D0104A3B781049D35C01223BB1381D82
:1005F00000F076FEB6E7072008B0BDE8F08107F10D
:100600000C0000F08FFBADE7A4000020A800002044
:10061000BC0000202027000000000020250400006E
:10062000B8000020E8000020CC00002070B5104D7C
:10063000014610482E78FFF7DFFE04460EB920462B
:1006400070BD0D480D490378CB5C0D4900222A701E
:10065000012243B1043000F043FE0028EFD0FFF741
:100660007BFE204670BD0C3000F05CFBF5E700BF60
:10067000B8000020A800002000000020E8000020B2
:10068000CC00002070B501461548FFF79DFE0446DA
:1006900008B1204670BD134D134E2B78F35CA3B107
:1006A000281D00F00FFE0028F3D110490C48FFF779
:1006B000A3FE0028EDD12B780C49F35C53B1BDE8C3
:1006C00070400B48012200F0A5BD05F10C0000F0C0
:1006D0001DFBE8E7BDE870400648012200F0AABA19
:1006E000BC00002000000020E8000020D000002016
:1006F000040000200C00002072B6024A1368013387
:1007000013607047D4000020034A1368013B136054
:1007100003B962B6704700BFD400002070B5161E42
:1007200007DD0C468D1914F8010BFFF7ABFFA5424E
:10073000F9D1304670BD00BF10B50C462046FFF71A
:1007400075FF0528FAD0012010BD00BF30B50A4B57
:100750000A4C53F8213054F82110027885B0D0E9C2
:1007600001548DF80020C26801958DF8084003926D
:100770006846984705B030BDE0000020D800002052
:1007800030B50A4B0A4C53F8213054F82110027846
:1007900085B0D0E901548DF80020C26801958DF82C
:1007A000084003926846984705B030BDE00000203D
:1007B000D8000020F0B5184B067843F82620174BD8
:1007C0000446487F98551546154A8E46096942F8F1
:1007D000261022789F5CBEE80F0089B0EC46ACE89A
:1007E0000F009EE80F008CE80F0004964FB1002D1B
:1007F0000C4A694608BF2A46201D00F0FDFB09B0DF
:10080000F0BD002D084A694608BF2A4604F10C00D5
:1008100000F01AF909B0F0BDE0000020E800002067
:10082000D80000204D07000081070000014B1B6825
:10083000184700BFEC00002038B50C4B984213D18C
:1008400000200D46FFF758FF094B1C7924B100200A
:10085000FFF75AFF112038BD012220461D601A7192
:10086000FFF752FF204638BD002038BD0020004071
:10087000EC0000200000000010B5714AD2F80433EB
:1008800099058AB068D5D2F82431002B64D00023B2
:10089000C2F82431D2F8243101934FF40171694B2D
:1008A0000198C2F8081393F8291009B90121516081
:1008B000634902228DF81820D1F88024C1F88024E1
:1008C0009FED5D7B9969D868CDE9081283ED067BC1
:1008D000D3E90012079006A89047594AD2F81C3174
:1008E000C3B1584B5869196A88426AD993F82810DD
:1008F00001F0FF00002964D1C2F81C01D2F81C11DC
:10090000039103999C68186A196A205C0131196285
:10091000C2F81C054A4AD2F84431DBB10021494BE8
:10092000C2F84411D2F8440193F8291000900098BD
:1009300009B1012111609A6962B1D8685C6A00212D
:100940000122CDE9070499618DF8182006A8D3E9A2
:10095000001290470AB010BD394AD2F804335B0741
:10096000BBD5D2F80831002BB7D0364B9969002996
:100970003ED00021C2F80811D2F808110491049960
:10098000D868596AD2F8182542545A6A99690132CE
:100990005A625A6A8A42A0D1DA69002A31D09A6131
:1009A0001A69D8685C6ADA60002101220894D9616A
:1009B000596207905C6819688DF8182006A8A0474E
:1009C0008BE71F4A0020C2F81C01D2F81C210292BA
:1009D000029A5A69002A9DD0D3E901215C698DF8F9
:1009E0001800CDE907145861196806A8904791E7E7
:1009F000C2F80811D2F8080105900598D2F8182518
:100A0000C7E793F8292012B90D4A012151600C4A19
:100A10004FF40171C2F80813D8685C6A0021012202
:100A200099618DF81820D3E90012CDE9070406A8D2
:100A3000904752E7AFF30080000000000000000084
:100A400000200040F80000202DE9F041734E90F89E
:100A500004802C2303FB086382B093F82A30002B18
:100A600040F09C8005460C4600686D491746FFF72C
:100A7000E3FE002840F08E802368591C19D01F2BFC
:100A80004FF001028ABF67494FF0A04103F01F03F6
:100A900002FA03F3C1F8083523681F2B86BF03F061
:100AA0001F03604A4FF0A04203F5E073032142F8B0
:100AB000231063685A1C0BD01F2B86BF03F01F0343
:100AC000584A4FF0A04203F5E073002142F823108A
:100AD0002B68A269C3F82425227D637D13432A680D
:100AE000C2F86C35D4E900122B68C3F81425C3F89A
:100AF0000C15237D012B5CD02C2303FB08F3F2188B
:100B000057602269F25097B32A68237F0021C2F808
:100B10001C11D2F81C210092009A2A68C2F84411D4
:100B2000D2F844210192019A2A683F49C2F804137D
:100B30002A6842F3073100294FEA123232DB01F111
:100B400060415B0101F56141DBB281F800332B6844
:100B500043F30732002A4FEA133109DB334C5209C1
:100B6000012301F01F0103FA01F144F822102B6860
:100B70000422C3F800252C2303FB0866012200236E
:100B8000C6E9063386F82930736186F82A2002B058
:100B9000BDE8F081112002B0BDE8F081082002B06C
:100BA000BDE8F081224902F00F025B01DBB28B54F9
:100BB000CDE7A368591C0BD01F2B86BF03F01F0382
:100BC00018494FF0A04103F5E073002241F82320BB
:100BD000E3685A1C1AD01F2B8ABF12494FF0A0415C
:100BE00003F01F03012202FA03F3C1F80835E3689A
:100BF0001F2B88BF03F01F0303F5E0738CBF094967
:100C00004FF0A041032241F82320E3682A68A1683D
:100C1000C2F80835C2F810156EE700BFF8000020D2
:100C200079080000000300508000020000E100E0AD
:100C300014ED00E02DE9F041334C90F804E02C2352
:100C400003FB0E438446586984B000284ED15A6194
:100C50009960186283F82800DCF80020C2F81C01B3
:100C6000D2F81C210292029ADCF800200121916046
:100C7000DCF800209D68C2F81C01D2F81C1101911B
:100C80000199196A6E5C196A01311962C2F81C6512
:100C90005A6812B104B0BDE8F0815E691A6ADCF8E6
:100CA000001096421BD9074602E093F828200ABBA1
:100CB000D1F81C21002AF8D0C1F81C71D1F81C21F0
:100CC0000392039A1A6A15F802801A6A01321A62AC
:100CD000C1F81C851A6A9642EAD8DCF80010D1F8EF
:100CE0001C31002BFBD00123CB6004E0112004B0A9
:100CF000BDE8F0810F202C2303FB0E440023636129
:100D000004B0BDE8F08100BFF80000200279044B78
:100D10002C2101FB02335869003818BF01207047AD
:100D2000F800002030B5554D90F804E02C2303FB6B
:100D30000E5387B05C68844624B103684FF4017099
:100D4000C3F808032C2303FB0E53986998B1D869A4
:100D5000002840F083801961DA612C2202FB0E52D8
:100D6000536853B3DCF800304FF40172C3F8042326
:100D7000002007B030BD9A61D9605862D86193F8FD
:100D80002930002BE9D1DCF80020C2F82431D2F858
:100D900024210192DCF800200199C2F80831D2F830
:100DA00008310293DCF80030029901221A602C22EB
:100DB00002FB0E525368002BD4D1DCF80010C1F8AE
:100DC0004431D1F844310393039BDCF80030D3F86D
:100DD0002411D3F80841D3F8440154B9002834D180
:100DE0000029F4D02C2303FB0E550023AB61032014
:100DF000BFE70029F6D150BB9169C3F8080181B162
:100E0000D3F8081104910499D468516AD3F81835BD
:100E10006354536A916901335362536A9942D4D837
:100E200006E0D3F8081105910599D3F81835536AEF
:100E30002C2303FB0E55002295F82930AA61B3B18B
:100E4000DCF8003001221A6093E70029CAD12C2374
:100E500003FB0E550023AB610F208AE764B1DCF879
:100E600000304FF40172C3F80423112081E7DCF84D
:100E7000003001225A607CE711207AE7F800002058
:100E800010B55B4BD3F824218AB0002A58D0002239
:100E9000C3F82421D3F82411049102228DF81820DC
:100EA0000499544AD3F88014C3F880149FED4E7B04
:100EB0000991D3F83C45D06882ED067BCDE9070463
:100EC000D2E9001306A89847494BD3F8442152B100
:100ED0000021484AC3F84411D3F8440191690390B2
:100EE0000398002961D1424BD3F8202162B1002040
:100EF000C3F82001D3F82021029201213D4A029C2F
:100F0000D9605169002943D1394BD3F85821AAB18E
:100F10000020C3F85801D3F85811364A01910199BD
:100F2000516959B1D3F84C458DF81800D2E9013117
:100F30005061CDE9071406A8116898470AB010BDA2
:100F4000D3F810110029BFD0C3F81021D3F8101125
:100F5000284C05910599A169D3F83C058842B3D185
:100F6000E169002933D0C4E90612D3F8002222F047
:100F70002002C3F80022E2680792012122698DF85D
:100F80001810089063682168E26006A898479BE7FC
:100F9000D3F84C458DF81800D2E901315061CDE904
:100FA000071406A811689847AEE79FED0F7BD3F8AA
:100FB0003C45D0684FF0010CCDE9070482ED067B7B
:100FC000D2E900138DF818C006A898478BE7E268AD
:100FD000A1610123CDE907208DF8183006A8D4E9D6
:100FE0000013984770E700BF0000000000000000F9
:100FF00000200040280100202DE9F04307797F4EB2
:1010000007EBC70306EB830387B093F82030002B70
:1010100040F0B58004460D46006879499046FFF7D8
:101020000BFC002840F0A7802B68591C4FEAC70929
:1010300019D01F2B4FF001028ABF72494FF0A04117
:1010400003F01F0302FA03F3C1F808352B681F2BC6
:1010500086BF03F01F036B4A4FF0A04203F5E07315
:10106000032142F823106B685A1C0BD01F2B86BF3C
:1010700003F01F03634A4FF0A04203F5E073002121
:1010800042F823102368AA69C3F824252B7D6A7DC2
:101090001A432368C3F86C25D5E900312268C2F8E9
:1010A0000C35C2F814152B7D012B73D009EB070208
:1010B00006EB8203C3F804802B6946F82230B8F1AE
:1010C000000F47D021682B7F0022C1F81021D1F8F2
:1010D0001011019101992168C1F82021D1F8201146
:1010E000029102992168C1F82421D1F824110391B9
:1010F00003992168C1F84421D1F84411049104995D
:101100002168C1F85821D1F858210592059A226822
:101110003D49C2F80413226842F3073100294FEA1F
:10112000123230DB01F160415B0101F56141DBB25C
:1011300081F80033226842F30733002B4FEA123163
:1011400009DB324D5B09012201F01F0102FA01F1B6
:1011500045F8231022684F4406EB8706012100233F
:1011600086F820100821C2F80015C6E9063373611D
:1011700007B0BDE8F083112007B0BDE8F083082078
:1011800007B0BDE8F083224902F00F025B01DBB239
:101190008B54CFE7AB68591C0BD01F2B86BF03F0D5
:1011A0001F0318494FF0A04103F5E073002241F8F6
:1011B0002320EB685A1C1AD01F2B8ABF11494FF00D
:1011C000A04103F01F03012202FA03F3C1F808351E
:1011D000EB681F2B88BF03F01F0303F5E0738CBF80
:1011E00008494FF0A041032241F82320EB68226810
:1011F000A968C2F80835C2F8101557E72801002081
:10120000810E0000000300501003420000E100E0E6
:1012100014ED00E001F0604CBCF1005F30D170B51E
:1012200090F804E0264C0EEBCE0C04EB8C0C03463D
:10123000DCF8140082B04FEACE0500283BD1CCF890
:101240001420CCF808101A68C2F82001D2F8202126
:101250000192019A1A68C2F85801D2F858210092F6
:10126000009A1A68DCF81460C2F84415C2F84865A0
:101270001A6801219160DCF804201AB102B070BD37
:10128000102070471A6800E0C0B9D2F82011D2F8D7
:1012900058010029F8D088B90121D1601B68D3F822
:1012A0005821002AFBD005EB0E0304EB8303002238
:1012B0005A6102B070BD112002B070BD0F20F2E77C
:1012C000280100200379054A03EBC30302EB8303E3
:1012D0005869003818BF0120704700BF280100205E
:1012E00001F06043B3F1005F62D1F0B490F804C044
:1012F000484C0CEBCC0304EB830382B05E684FEAEE
:10130000CC0326B105684FF40477C5F8087363442D
:1013100004EB83039D695DBB9A61DD61D96003685D
:10132000C3F81051D3F810310193019B0368C3F83F
:101330004451D3F8443100930368009DC3F8341539
:10134000C3F83825036801221A6090F804C00CEB3A
:10135000CC0304EB83034FEACC055B6853B303680B
:101360004FF40472C3F80423002002B0F0BC7047AD
:10137000DD69002D37D11961DA610368C3F81051B6
:10138000D3F810310193019B0368C3F84451D3F89B
:10139000443100930368009DC3F83415C3F8382521
:1013A0000268D2F8003243F02003C2F80032CCE7E2
:1013B00010207047036801E0E9B910BBD3F8102191
:1013C000D3F84411D3F82401002AF5D0654400284D
:1013D0004FF0000304EB850418BF03209942A3617A
:1013E00018BF0F20C1E796B103684FF40472C3F829
:1013F00004231120B9E7654404EB85040F20A261A2
:10140000B3E7654404EB85040320A161ADE7112037
:10141000ABE700BF280100200378022B02D0012B8C
:1014200000D070474068FEF797BF00BF10B51C4C56
:101430008AB00120FEF760FF0FCC0DF1100CACE874
:101440000F0094E803008CE803001649164B009344
:101450004FF48074CDE90141144A0394072369468F
:1014600004A8FFF76FF8B8B9114800F077F968469B
:10147000FFF7DCF80028FAD19DF80000FFF702F929
:101480000028F9D19DF8003003F0DF03512BEED195
:10149000084800F063F9FEE7FEF75EFFE4E700BFEF
:1014A000682700004C0200204C01002019140000A5
:1014B000402700005C27000010B44FF08053D3F8A1
:1014C0003021082A1CD0774AD2F8883043F47003C0
:1014D000C2F88830BFF34F8FBFF36F8F4FF01023E8
:1014E000D3F80022002AC0F2AC80D3F80432002BDB
:1014F000C0F2A7806C4B6D4A1A605DF8044B7047D0
:101500004FF080410020C1F80C01694AC1F8100178
:10151000C1F83805D3F80414C2F82015D3F808141C
:10152000C2F82415D3F80C14C2F82815D3F81014F7
:10153000C2F82C15D3F81414C2F83015D3F81814C7
:10154000C2F83415D3F81C14C2F84015D3F820148F
:10155000C2F84415D3F82414C2F84815D3F8281457
:10156000C2F84C15D3F82C14C2F85015D3F8301427
:10157000C2F85415D3F83414C2F86015D3F83814EF
:10158000C2F86415D3F83C14C2F86815D3F84014B7
:10159000C2F86C15D3F83411D3F84434C2F870355E
:1015A000032942D8434B5B5C1BB1434B434AC3F80E
:1015B0008C26434B5B5C73B14FF080534149D3F8A9
:1015C0003021FB20C1F81805082AD3F834117FF424
:1015D0007AAF032929D83C4B5B5CBBB14FF08052FA
:1015E0004FF08040D2F85832D0F8E41ED2F83041A3
:1015F00021F00F0103F00F030B43C0F8E43E082C69
:10160000D2F834117FF45FAF03290ED82F4B5B5C07
:101610005BB14FF080532E4AD3F830314FF4007154
:10162000082BC2F840167FF44EAF4FF08043D3F83A
:101630000024D2077FF547AF6FF00102C3F8002402
:1016400041E7244A0123C2F80435D2F80034002BC4
:10165000FBD04FF0102312211E4AC3F80012D2F81B
:101660000034002BFBD04FF010231221194AC3F88D
:101670000412D2F80034002BFBD000231549C2F825
:101680000435D1F80034002BFBD0BFF34F8F054950
:10169000114BCA6802F4E0621343CB60BFF34F8F73
:1016A00000BFFDE700ED00E0140000200090D00333
:1016B00000C0004080270000005000404881030027
:1016C0008027000000F000408027000080270000F5
:1016D0000090024000E001400400FA0508B5074B05
:1016E000044613B10021AFF30080054B1868836AEC
:1016F00003B19847204601F005F800BF0000000044
:101700008427000070B50D4D0D4C641BA4100026FD
:10171000A64209D10B4D0C4C00F0F6FF641BA4103F
:101720000026A64205D170BD55F8043B9847013606
:10173000EEE755F8043B98470136F2E77C000020BD
:101740007C0000207C000020800000200244034632
:10175000934200D1704703F8011BF9E70FB40A4B1D
:1017600013B51C6824B1A36913B9204600F066F8CC
:1017700005AB049AA1680193204600F083F902B0FA
:10178000BDE8104004B0704718000020002310B5D9
:101790000446C0E90033C0E90433836081814366B5
:1017A000C2818361194608225C30FFF7CFFF054BE9
:1017B0006362054BA362054BE362054B246223631E
:1017C00010BD00BF2D2000004F200000872000002A
:1017D000AB200000014900F0AFB800BF8523000036
:1017E00070B568224D1E55430E4605F1740100F098
:1017F000C5F8044640B10021C0E900160C30A060D5
:1018000005F16802FFF7A2FF204670BD014800F015
:10181000B3B800BF4D030020014800F0AEB800BFD0
:101820004D030020014800F0A7B800BF4E03002080
:10183000014800F0A2B800BF4E03002010B50446D6
:10184000FFF7F0FFA3691BB1BDE81040FFF7F0BF41
:10185000C4E912332365134B134A1B68A262A342E7
:1018600004BF0123A361204600F020F860602046F9
:1018700000F01CF8A060204600F018F80022E0609C
:1018800004216068FFF782FFA06801220921FFF7A9
:101890007DFFE06802221221FFF778FF0123A36198
:1018A000D2E700BF84270000D5170000F8B507462F
:1018B000FFF7ACFF1E4B1E68B36913B93046FFF744
:1018C000BDFF4836D6E90134013B03D533680BB37D
:1018D0003668F7E7B4F90C50D5B9164BE36004F15C
:1018E0005800656600F047F8FFF796FFC4E9015518
:1018F000C4E904552560A5610822294604F15C006D
:10190000FFF724FFC4E90D55C4E912552046F8BD80
:101910006834D9E704213846FFF762FF0446306097
:101920000028D5D1FFF778FF0C233B60EEE700BF1E
:10193000842700000100FFFF2DE9F8430646884692
:1019400000F148040027D4E90195B9F1010905D552
:101950002468002CF7D13846BDE8F883AB89012B09
:1019600007D9B5F90E30013303D029463046C047B8
:1019700007436835E9E7704770477047F8B5CD1CF5
:1019800025F0030508350C2D38BF0C25002D064623
:1019900001DBA94203D90C2333600020F8BD00F01D
:1019A000F7FD21490A6814469CB9204F3B6823B9CA
:1019B0002146304600F02AFB38602946304600F0C8
:1019C00025FB431C23D10C233360304600F0E6FD99
:1019D000E3E723685B1B17D40B2B03D923601C445C
:1019E000256004E06368A2420CBF0B605360304680
:1019F00000F0D4FD04F10B00231D20F00700C21AF3
:101A0000CCD01B1AA350C9E722466468CCE7C41C9B
:101A100024F00304A042E3D0211A304600F0F6FA85
:101A20000130DDD1CFE700BF500300205403002078
:101A30009368013B002B10B4936008DA9469A342C9
:101A400001DB0A2903D15DF8044B00F033BB1368B6
:101A5000581C1060197008465DF8044B7047F8B5C3
:101A600006460F461446D518AC4201D1002007E0C7
:101A700014F8011B3A463046FFF7DAFF431CF3D156
:101A8000F8BD00002DE9F04F0D469DB01446984674
:101A9000064618B183690BB9FFF7D0FE894B9D420A
:101AA0001BD175686B6ED90705D4AB899A0502D432
:101AB000A86DFFF761FFAB891B0701D52B69EBB957
:101AC0002946304600F05AFBC0B16B6EDC070ED5DC
:101AD0004FF0FF301DB0BDE8F08F7B4B9D4201D130
:101AE000B568DFE7794B9D4208BFF568DAE7AB8957
:101AF0009805EDD4A86DFFF740FFE9E700230993AF
:101B000020238DF82930CDF80C803023DFF8C081F8
:101B10008DF82A304FF0010923469A4613F8012B1D
:101B20000AB1252AF9D1BAEB040B0BD05B46224649
:101B300029463046FFF793FF013000F0AA80099A4A
:101B40005A4409929AF80030002B00F0A28000233A
:101B50004FF0FF32CDE905230AF1010A0493079300
:101B60008DF853301A935446052214F8011B584837
:101B700000F0BEFC049AD8B9D10644BF20238DF8EA
:101B80005330130744BF2B238DF853309AF800309D
:101B90002A2B15D0079A544600204FF00A0C2146F4
:101BA00011F8013B303B092B4ED9B0B1079214E03C
:101BB000A0EB080309FA03F313430493A246D2E708
:101BC000039B191D1B680391002BBBBF5B4242F0B6
:101BD000020207930793B8BF049223782E2B0CD1EF
:101BE00063782A2B35D1039B1A1D1B680392002BA7
:101BF000B8BF4FF0FF3302340593DFF8E4A021783B
:101C00000322504600F074FC40B14023A0EB0A00D0
:101C100003FA00F0049B03430134049314F8011BFE
:101C20002C488DF82810062200F062FC00283FD0D6
:101C3000294B1BBB039B073323F007030833039394
:101C4000099B3B44099367E70CFB02320C460120D9
:101C5000A5E700230134059319464FF00A0C2046EE
:101C600010F8012B303A092A03D9002BC5D0059171
:101C7000C3E70CFB012104460123F0E703AB00930B
:101C80002A46164B04A93046AFF300800746781C5D
:101C9000D6D16B6ED90705D4AB899A0502D4A86D4D
:101CA000FFF76BFEAB895B063FF512AF099811E7B2
:101CB00003AB00932A46094B04A9304600F080F894
:101CC000E4E700BFA8270000C8270000882700001D
:101CD000E8270000F2270000000000005F1A000063
:101CE000EE2700002DE9F047164699468A680B69F1
:101CF000DDF820809342B8BF1346336091F843204B
:101D000007460C460AB1013333602368990642BF87
:101D1000336802333360256815F0060506D104F1F7
:101D2000190AE36832689B1AAB4226DC94F8432018
:101D3000131E226818BF012392062BD404F143021C
:101D400049463846C04701301ED02368E5683268EE
:101D500003F00603042B08BFAD1AA36822690CBF69
:101D600025EAE57500259342C4BF9B1AED180026AD
:101D70001A34B5421AD1002008E0012352464946E0
:101D80003846C047013003D14FF0FF30BDE8F0873F
:101D90000135C6E7E1185A1C302081F8430022447F
:101DA00094F8451082F843100233C7E70123224616
:101DB00049463846C0470130E6D00136D9E7000031
:101DC0002DE9FF470F7E0C9D782F914680460C46EB
:101DD0009A4601F1430207D8622F0AD8002F00F07B
:101DE000D880582F00F0A38004F1420584F8427097
:101DF0003AE0A7F16303152BF6D801A151F823F0BF
:101E0000591E00006D1E0000E91D0000E91D0000C4
:101E1000E91D0000E91D00006D1E0000E91D000025
:101E2000E91D0000E91D0000E91D0000791F000008
:101E30009D1E00005B1F0000E91D0000E91D000061
:101E40009B1F0000E91D00009D1E0000E91D000011
:101E5000E91D0000631F00002B681A1D1B682A6023
:101E600004F1420584F842300123A3E02068296888
:101E7000060601F104030AD50E682B60002E03DA72
:101E80002D23764284F843305E480A2319E00E6819
:101E90002B6010F0400F18BF36B2EFE72B682068B8
:101EA000191D2960010601D51E6802E04606FBD512
:101EB0001E8854486F2F0CBF08230A23002184F882
:101EC00043106568A560002DA2BF216821F00401C0
:101ED00021600EB9002D4DD01546B6FBF3F103FB82
:101EE0001167C75D05F8017D3746BB420E46F4D940
:101EF000082B0BD12368DE0708D523696168994256
:101F0000DEBF302305F8013C05F1FF35521B22618D
:101F1000CDF800A04B4603AA21464046FFF7E2FE5B
:101F200001304CD14FF0FF3004B0BDE8F0873548A8
:101F300081F845702968236851F8046B29601D06F3
:101F400014D5DF0744BF43F0200323601EB9236884
:101F500023F0200323601023B0E7236843F020031D
:101F600023607823284884F84530E3E7590648BFC2
:101F7000B6B2E6E71546BBE72B6826686169181D0F
:101F8000286035061B6801D5196002E07006FBD594
:101F90001980002323611546BAE72B681A1D2A60B1
:101FA0001D6862680021284600F0A2FA08B1401BB3
:101FB000606063682361002384F84330A8E72369E5
:101FC0002A4649464046D0470130ABD023689B079C
:101FD00013D4E068039B9842B8BF1846A4E70123D6
:101FE000324649464046D04701309BD00135E36830
:101FF00003995B1AAB42F2DCEBE7002504F119060A
:10200000F5E700BFF92700000A28000038B5064DA3
:102010000023044608462B6000F066FB431C02D1F7
:102020002B6803B1236038BD5803002010B50C465F
:10203000B1F90E1000F004FB0028ABBF636DA3895B
:102040001B1823F48053ACBF6365A38110BD2DE939
:10205000F0411F468B89DB0505460C46164605D523
:10206000B1F90E100223002200F0C8F9A389B4F9D7
:102070000E1023F48053A38132463B462846BDE828
:10208000F04100F069B810B50C46B1F90E1000F03F
:10209000B5F9431CA38915BF606523F4805343F44D
:1020A0008053A38118BFA38110BDB1F90E1000F0B9
:1020B000D3B80000F8B50E461446054618B183693A
:1020C0000BB9FFF7BBFB214B9C422BD16C68A3697A
:1020D000A360A3891A072FD523696BB323692068EE
:1020E000C01A6369F6B28342374604DC21462846AB
:1020F00000F048F930BBA368013BA36023685A1C79
:1021000022601E7063690130834204D0A389DB071B
:1021100006D50A2E04D12146284600F033F988B9A5
:102120003846F8BD0A4B9C4201D1AC68CFE7094B59
:102130009C4208BFEC68CAE72146284600F01EF81A
:102140000028CBD04FF0FF37EAE700BFA8270000F8
:10215000C82700008827000038B5074D0446084608
:10216000114600222A601A46FEF7D8FA431C02D113
:102170002B6803B1236038BD58030020324B70B583
:102180001D6806460C4625B1AB6913B92846FFF712
:1021900055FB2E4B9C420FD16C68A389B4F90C20DF
:1021A00019072CD4DD0611D40923336042F0400313
:1021B000A3814FF0FF303EE0254B9C4201D1AC683B
:1021C000EBE7244B9C4208BFEC68E6E7580712D5C2
:1021D000616B41B104F14403994202D0304600F0F2
:1021E000E3F900236363A38923F02403A38100237D
:1021F000636023692360A38943F00803A3812369F3
:102200004BB9A38903F42073B3F5007F03D02146B3
:10221000304600F02BF9A089B4F90C2010F001032E
:102220000AD00023A36063695B42A361236943B9B9
:1022300010F08000BAD170BD810758BF6369A360F8
:10224000F4E70020F7E700BF18000020A8270000EF
:10225000C82700008827000038B5064D0023044633
:1022600008462B6000F020FA431C02D12B6803B112
:10227000236038BD580300208A892DE9F0410546C6
:1022800010070C4658D44B68002B05DC0B6C002B58
:1022900002DC0020BDE8F081E66A002EF9D00023C0
:1022A00012F480522F682B6032D0606DA3895A07D8
:1022B00005D56368C01A636B0BB1236CC01A002389
:1022C0000246E66A216A2846B047431CA38906D124
:1022D00029681D292CD82A4ACA40D60728D50022A9
:1022E0006260D9042269226004D5421C01D12B68A6
:1022F00003B96065616B2F600029CAD004F1440303
:10230000994202D0284600F04FF900206063C1E7EF
:10231000216A01232846B047411CC7D12B68002BF6
:10232000C4D01D2B01D0162B01D12F60B1E7A3899A
:1023300043F04003A381ADE70F69002FA9D09307B5
:102340000E6808BF4B690F6018BF0023A6EB070893
:102350008B60B8F1000F9CDD216AA66A43463A46BD
:102360002846B047002806DCA38943F04003A38138
:102370004FF0FF308EE70744A8EB0008E9E700BF05
:102380000100402038B50B6905460C4613B90025FD
:10239000284638BD18B183690BB9FFF74FFA144BC3
:1023A0009C421BD16C68B4F90C30002BEFD0626EEC
:1023B000D00704D4990502D4A06DFFF7DDFA2846B2
:1023C0002146FFF759FF636EDA070546E0D4A3897B
:1023D0009B05DDD4A06DFFF7D0FAD9E7054B9C42F1
:1023E00001D1AC68DFE7044B9C4208BFEC68DAE738
:1023F000A8270000C82700008827000038B5074D2F
:1024000004460846114600222A601A4600F064F984
:10241000431C02D12B6803B1236038BD5803002050
:1024200070B50E46B1F90E10002996B014461D463F
:1024300008DAB6F90C3000222A601A0610D44FF4DC
:1024400080630EE06A4600F00DF90028F1DB019A86
:1024500002F47042A2F500535A425A412A60EEE754
:1024600040230020236016B070BD00008B8973B537
:102470009D0706460C4607D504F1470323602361F8
:102480000123636102B070BD01AB6A46FFF7C8FF6C
:10249000009905463046FFF771FA48B9B4F90C3097
:1024A0009A05EFD423F0030343F00203A381E3E78B
:1024B0000D4BB362A389206043F08003A381009B8E
:1024C0006361019B20615BB1B4F90E10304600F0EE
:1024D000DBF828B1A38923F0030343F00103A381B0
:1024E000A0890543A581CDE7D517000000000000B5
:1024F00001F0FF01102A2BDB10F0070F08D010F8B5
:10250000013B013A8B422DD010F0070F42B3F6D1B8
:10251000F0B441EA012141EA014122F007047FF0D1
:1025200000070023F0E80256083C85EA010586EA28
:10253000010685FA47F5A3FA87F586FA47F6A5FA64
:1025400087F68EB9EED1F0BC01F0FF0102F0070270
:1025500032B110F8013B013A83EA010313B1F8D11B
:102560000020704701387047002D06BF35460338FC
:10257000073815F0010F07D1013015F4807F02BF35
:10258000013015F4C03F0130F0BC0138704700BF86
:102590000148FFF7F1B900BF4C0300200148FFF7E5
:1025A000ECB900BF4C03002037B5002944D051F8E6
:1025B000043C0190002BA1F10404B8BFE418FFF71C
:1025C000E7FF1E4A0198136833B96360146003B0D3
:1025D000BDE83040FFF7E2BFA34208D92568611982
:1025E0008B4201BF19685B6849192160EDE71A4603
:1025F0005B680BB1A342FAD911685518A5420BD1FB
:10260000246821445418A3421160E0D11C685B681F
:10261000536021441160DAE702D90C230360D6E746
:10262000256861198B4204BF19685B68636004BF49
:10263000491921605460CAE703B030BD500300203F
:1026400038B5074D04460846114600222A601A464E
:10265000FEF772F8431C02D12B6803B1236038BD2A
:102660005803002038B5074D00230446084611469C
:102670002B6000F021F8431C02D12B6803B12360CA
:1026800038BD00BF5803002038B5064D002304466E
:1026900008462B6000F018F8431C02D12B6803B1E8
:1026A000236038BD58030020024B58221A604FF0B7
:1026B000FF30704758030020024B58221A604FF039
:1026C000FF30704758030020024B58221A60002048
:1026D000704700BF58030020024B58221A604FF089
:1026E000FF30704758030020044A05491368002B47
:1026F00008BF0B4618441060184670475C03002062
:1027000060030020FEE700BFF8B500BFF8BC08BCBE
:102710009E467047F8B500BFF8BC08BC9E4670479F
:10272000FFFFFFFFFFFFFFFFFFFFFFFFFFFFFFFFB9
:1027300000000000000000000000D60106010000BB
:102740000D0A55415254206578616D706C65207397
:102750007461727465642E0D0A000000200D0A4534
:10276000786974210D0A00000800000006000000CE
:1027700005000000070000000000000000E0D70195
:10278000010000001C00002000000000000000000C
:102790000000000000000000000000000000000039
:1027A0000000000000000000000000000000000029
:1027B0000000000000000000000000000000000019
:1027C0000000000000000000000000000000000009
:1027D00000000000000000000000000000000000F9
:1027E0000000000000000000232D302B2000686C4A
:1027F0004C00656667454647003031323334353624
:10280000373839414243444546003031323334355C
:102810003637383961626364656600000000000085
:0828200020DAFF7F0100000037
:1028280000000000002000400000000000200040E0
:10283800000000000090D0031C00002000000000F1
:10284800A8270000C8270000882700000000000013
:102858000000000000000000000000000000000070
:102868000000000000000000000000000000000060
:102878000000000000000000000000000000000050
:102888000000000000000000000000000000000040
:102898000000000000000000000000002502000009
:0428A8000102000029
:04000003000002BD3A
:00000001FF
