:1000000008200020A9050000070500006905000080
:100010008F0500009B050000C905000000000000DE
:10002000000000000000000000000000CB05000000
:10003000CD05000000000000CF050000D105000044
:10004000D3050000D5050000D7050000D905000044
:10005000DB050000DD050000DF050000E105000014
:10006000E3050000E5050000E7050000E9050000E4
:10007000EB050000ED050000EF050000F1050000B4
:10008000F3050000F5050000F7050000F905000084
:10009000FB050000FD050000FF0500000106000053
:1000A0000306000005060000070600000906000020
:1000B0000B0600000D06000000000000000000001C
:1000C0000F060000110600001306000015060000D0
:1000D00017060000190600001B0600001D060000A0
:1000E0001F0600002106000023060000000000009B
:1000F00000000000250600000000000027060000A8
:1001000000000000000000000000000000000000EF
:1001100000000000000000000000000000000000DF
:1001200000000000000000000000000000000000CF
:1001300000000000000000000000000000000000BF
:1001400000000000000000000000000000000000AF
:10015000000000000000000000000000000000009F
:10016000000000000000000000000000000000008F
:10017000000000000000000000000000000000007F
:10018000000000000000000000000000000000006F
:10019000000000000000000000000000000000005F
:1001A000000000000000000000000000000000004F
:1001B000000000000000000000000000000000003F
:1001C000000000000000000000000000000000002F
:1001D000000000000000000000000000000000001F
:1001E000000000000000000000000000000000000F
:1001F00000000000000000000000000000000000FF
:1002000030B54E490868082806D14D4800220260E2
:10021000426000204B4A10600B68082B23D14A4AE9
:100220004A48136803605468446093688360D468E4
:10023000C460136903615469446193690362D469BA
:100240004462136A8362546AC462936A0363D46A21
:100250004463136B0364546B4464936B8364D46B87
:10026000C464126C02650868082804BF4868002846
:1002700002D13748374A02600B68082B04BF486830
:10028000002802D13448FB2202600B68082B04BF0F
:100290004868002809D13148314B02681C7812099E
:1002A00004F00F0444EA021202600868082804BF40
:1002B0004868002803D12B484FF400720260096897
:1002C000082906D128480168CA0744BF6FF0010118
:1002D00001602649C86F40F47000C867BFF34F8FB4
:1002E000BFF36F8F224A106800285CBF5068002857
:1002F0001CD5204B01241C601F4C00F041F8122536
:10030000156000F03DF8556000F03AF800221A60E0
:1003100000F036F8BFF34F8F0A68184802F4E06225
:1003200002430A60BFF34F8F00BFFDE7014A024955
:10033000116030BD000000200090D003300100109B
:100340000C010040380500400404001020C50040A6
:100350008C5600404881030018F50040E40E004030
:100360005802001040960240000400400CED00E0EE
:100370000012001004E5014000E401400400FA0509
:1003800020680028FCD0704701681F2902D84FF070
:10039000A040704701F01F0101602A4870472DE915
:1003A000F14181B0089D099C0E461746984601A868
:1003B000FFF7EAFF46EA4706019946EA880646EA59
:1003C000052600EB810046EA0446C0F80067BDE858
:1003D000F3811CB5012400900029684606D1FFF77F
:1003E000D3FF00998C40C0F80C4513BDFFF7CCFF3C
:1003F00000998C40C0F8084513BD000025A2105C90
:100400000121E6E710B500242046FFF7F7FF641C42
:10041000042CF9D310BD00001EA1085C1F2892BF58
:100420004FF0A04100F01F00064901F204510123E2
:100430000A6803FA00F020EA02034B60104088606B
:100440007047000000030050FEB50446E00710D5D9
:100450005FF000050FA60027019700970023705D4D
:1004600001220121FFF79BFF6D1C042DF4D3FFF740
:10047000C9FFA0070DD5002407A500200190002189
:1004800000910323285D0022FFF789FF641C042CE0
:10049000F3D3F7BD0D0E0F100B0C18190000000060
:1004A00038B50120FFF7D0FF00252846FFF7B4FF3D
:1004B0004FF4FA7406A14FF47A4041F001018847E5
:1004C000641EF7D16D1C042DEEDAEEE7000000008B
:1004D0000338FDD87047000030B40EE0026843686E
:1004E00002440830DC0744BFA9F10104E31852F8C4
:1004F000045B43F8045B091FF9D150F8041B002981
:10050000ECD130BC7047FEE710B50749794418318B
:10051000064C7C44163404E00A68081D11448847E0
:100520000146A142F8D110BD2C0000003C000000A3
:100530004EF68851CEF20001086840F47000086061
:10054000BFF34F8FBFF36F8F4FF00070E1EE100AD3
:100550007047000085FFFFFF0400000068000000F6
:100560000000002000000000FEE700000120C0465F
:10057000002801D0FFF7C8FFAFF300800020AFF3E1
:100580000080FFF78DFF00F000F800F001B8FEE7F3
:100590000746384600F002F8FBE7FEE72021090392
:1005A00026311820ABBEF9E70148804701480047D3
:1005B00001020000B9050000AFF30080FFF7B8FFAB
:1005C000FFF7D4FF0090D003FEE7FEE7FEE7FEE76B
:1005D000FEE7FEE7FEE7FEE7FEE7FEE7FEE7FEE7F3
:1005E000FEE7FEE7FEE7FEE7FEE7FEE7FEE7FEE7E3
:1005F000FEE7FEE7FEE7FEE7FEE7FEE7FEE7FEE7D3
:10060000FEE7FEE7FEE7FEE7FEE7FEE7FEE7FEE7C2
:10061000FEE7FEE7FEE7FEE7FEE7FEE7FEE7FEE7B2
:08062000FEE7FEE7FEE7FEE73E
:04000005000005B939
:00000001FF
